:100000000C940B010C9401380C9432380C94633826
:100010000C9494380C94C5380C94F6380C94273909
:100020000C9458390C9438010C9438010C94380114
:100030000C9438010C9438010C9438010C9438015C
:100040000C9438010C94F91A0C9438010C94380172
:100050000C9438010C9438010C9438010C948939B3
:100060000C9438010C94E63C0C94C63D0C94380179
:100070000C9438010C9438010C9438010C9438011C
:100080000C94CB1A0C9438010C9438010C94380160
:100090000C941E3D0C94053E0C9438010C943801D0
:1000A0000C9438010C9438010C949D1A0C9438016E
:1000B0000C9438010C9438010C9438010C946F1A8C
:1000C0000C9438010C9438010C9438010C94563D72
:1000D0000C94443E0C9438010C948E3D0C94833E59
:1000E0000C94380100002100240027002A002D0074
:1000F0003000330001010000040107010A01000083
:100100002200250028002B002E00310034000201BF
:100110000000050108010B0100002000230026005B
:1001200029002C002F00320000010000030106010D
:10013000090105050505070508080808020202026D
:100140000A0A080804040404010101010101010173
:100150000303030303030303040707070C0C0C0C3E
:100160000C0C0C0C02020202060606060606060627
:100170000B0B0B0B0B0B0B0B0102102020080810B4
:100180002040102040800201020108040201010207
:1001900004081020408080402010080402018004E0
:1001A000020180402010080402010804020101023B
:1001B0000408102040800102040810204080000044
:1001C000090A02080B0C0D070603040100000000D9
:1001D000000000000000000000000000000000001F
:1001E0000000000000000000000011100F000000DF
:1001F00000000000000000000000000000000000FF
:100200000000000054083B0B711B49265D35ED3F93
:10021000340B6A1B563511241FBECFEFD1E2DEBF6F
:10022000CDBF00E00CBF16E0A0E0B2E0E2EDF8E8E0
:1002300000E00BBF02C007900D92A234B107D9F7BE
:100240001BBE16E1A2E4B6E001C01D92AC3FB107AF
:10025000E1F712E0C0E1D2E004C02297FE010E9463
:100260005844C430D107C9F70E944D080C941103BB
:100270000C940000CF93DF93BC018230910510F401
:1002800062E070E0A091FA16B091FB16ED01E0E09B
:10029000F0E040E050E021C08881998186179707FF
:1002A00069F48A819B81309719F09383828304C01B
:1002B0009093FB168093FA16FE0134C068177907F5
:1002C00038F44115510519F08417950708F4AC016D
:1002D000FE018A819B819C01E9012097E9F6411585
:1002E0005105A9F1CA01861B970B049708F4BA01BE
:1002F000E0E0F0E02AC08D919C911197841795075A
:10030000F9F46417750781F412968D919C911397F7
:10031000309719F09383828304C09093FB168093E7
:10032000FA16FD0132964CC0CA01861B970BFD01DF
:10033000E80FF91F6193719302978D939C9340C0CE
:10034000FD01828193819C01D9011097A1F68091D2
:10035000F8169091F916892B41F48091EA04909156
:10036000EB049093F9168093F8164091EC045091A9
:10037000ED044115510541F44DB75EB78091E80495
:100380009091E904481B590B2091F8163091F91609
:10039000CA01821B930B8617970780F0AB014E5F53
:1003A0005F4F8417950750F0420F531F5093F91673
:1003B0004093F816F9016193719302C0E0E0F0E018
:1003C000CF01DF91CF910895CF93DF93009709F488
:1003D00050C0EC0122971B821A82A091FA16B091AC
:1003E000FB16109709F140E050E0AC17BD0708F18B
:1003F000BB83AA83FE0121913191E20FF31FAE1757
:10040000BF0779F48D919C911197280F391F2E5FAA
:100410003F4F3983288312968D919C9113979B832C
:100420008A834115510571F4D093FB16C093FA16D7
:1004300020C012968D919C911397AD01009711F0F9
:10044000DC01D3CFFA01D383C28321913191E20F32
:10045000F31FCE17DF0769F488819981280F391FB0
:100460002E5F3F4FFA01318320838A819B819383E2
:100470008283DF91CF910895A0E0B0E0E2E4F2E062
:100480000C9421446C01009729F4CB010E943A019D
:100490006C01C1C08EEF882E8FEF982E8C0C9D1CA6
:1004A0008601060F171F0815190508F4B2C0F401DC
:1004B000A081B181A617B707B8F0A530B10508F43F
:1004C000AAC0CD0104978617970708F4A4C0129715
:1004D000A61BB70BF801A193B193D4016D937C9344
:1004E000CF010E94E40197C07B01EA1AFB0AEEEFFC
:1004F000FFEFEE0EFF1E36016A0E7B1EC091FA164C
:10050000D091FB1644245524AA24BB244AC0C61506
:10051000D705E1F5488159814E155F05B8F1CA014B
:1005200004978E159F05B0F41296A40FB51FF40121
:10053000B183A0832A813B814114510431F0D2015F
:1005400013963C932E93129766C03093FB1620931C
:10055000FA1661C08A819B81F8019383828342509D
:1005600050404E195F09518340834114510431F0CA
:10057000D20113961C930E93129704C01093FB168E
:100580000093FA16F4017183608345C088819981D4
:10059000A816B90608F45C012E018A819B819C0192
:1005A000E901209709F0B3CF8091F8169091F916E0
:1005B00086159705E9F4A616B706D0F42091EC0449
:1005C0003091ED042115310541F42DB73EB78091EE
:1005D000E8049091E904281B390B02171307C8F4AB
:1005E0001093F9160093F816D4016D937C9313C001
:1005F000CB010E943A01EC01009759F0F4014081CF
:100600005181B6010E941403C6010E94E4016E01EB
:1006100002C0CC24DD24C601CDB7DEB7E0E10C94E6
:100620003D44F8940C945C44FB01DC0102C0019051
:100630000D9241505040D8F70895AF92BF92CF929B
:10064000DF92EF92FF920F931F93DF93CF93CDB77B
:10065000DEB768970FB6F894DEBF0FBECDBF6091CE
:10066000E8077091E9074091E6075091E7075E01BE
:100670000894A11CB11CC5010E94572397E0C92E04
:10068000D12CCC0EDD1EC60164E070E043E050E0EA
:100690000E9457230E9429152DE236E03E872D87C0
:1006A0008B819C81988B8F878D819E819A8B898B82
:1006B0003C8B2B8B89859A859E8B8D8B8B859C851E
:1006C000988F8F8B8DE0E82EF12CEC0EFD1E8E01A5
:1006D0000D5E1F4FC701B8010E941A12C8010E9487
:1006E0008023C7010E9480230E94BA1681E090E017
:1006F0000E94A415C6010E948023C5010E94802388
:1007000068960FB6F894DEBF0FBECDBFCF91DF91D4
:100710001F910F91FF90EF90DF90CF90BF90AF901F
:100720000895CF92DF92EF92FF920F931F93DF9382
:10073000CF93CDB7DEB72C970FB6F894DEBF0FBEC0
:10074000CDBF1092E9071092E8071092E7071092C8
:10075000E60781E090E090933105809330058DEEBF
:1007600093E10E94CA2385EE93E10E94CA238DEE95
:1007700093E16CE370E00E948F2385EE93E16CE3DC
:1007800070E00E948F2382E394E165ED73E141E024
:1007900021E00E945C218091D5139091D613893C71
:1007A000910588F78091E3139091E413893C9105BA
:1007B00050F780E293E00E94BD2A0E94C92968EEAA
:1007C00073E080E090E00E94F7398AE161E00E94E6
:1007D000833C0E9460331092E9071092E807109260
:1007E000E7071092E6077E010894E11CF11C2DE258
:1007F000C22E26E0D22E8E01095F1F4F6091E807BE
:100800007091E9074091E6075091E707C7010E9400
:1008100057230E94291586E161E00E94833CD88617
:10082000CF828B819C819A8789878D819E819C87CD
:100830008B87C8010E94D30DC8010E94802386E1E6
:1008400060E00E94833C0E94F016C7010E94802352
:100850008091EA07882391F22C960FB6F894DEBFB8
:100860000FBECDBFCF91DF911F910F91FF90EF9001
:10087000DF90CF9008958DEE93E10E94CA2385EE1C
:1008800093E10E94CA2382E394E165ED73E141E0C4
:1008900021E00E945C2102C00E9458328091D51351
:1008A0009091D613855F9140B8F702C00E945832EC
:1008B0008091D5139091D613845F9140B8F30E9434
:1008C000C9290E9439300E942B330E94C9290895FA
:1008D000AF92BF92CF92DF92EF92FF920F931F934E
:1008E000DF93CF93CDB7DEB768970FB6F894DEBF2E
:1008F0000FBECDBF0E9435176091E8077091E907E0
:100900004091E6075091E7075E010894A11CB11CD5
:10091000C5010E94572347E0C42ED12CCC0EDD1E0A
:10092000C60164E070E043E050E00E9457230E945B
:1009300029152DE236E03E872D878B819C81988B8F
:100940008F878D819E819A8B898B3C8B2B8B8985A0
:100950009A859E8B8D8B8B859C85988F8F8B3DE0A8
:10096000E32EF12CEC0EFD1E8E010D5E1F4FC70114
:10097000B8010E941A12C8010E948023C7010E9478
:1009800080230E94BA1681E090E00E94A4150E9484
:100990003B0485E090E09093E9078093E80710928C
:1009A000E7071092E6070E942F34C6010E948023B9
:1009B000C5010E94802368960FB6F894DEBF0FBE73
:1009C000CDBFCF91DF911F910F91FF90EF90DF90FE
:1009D000CF90BF90AF90089580912A07882339F077
:1009E0000E942B330E9439300E942B3308950E94BD
:1009F00039300E942B330E94182E0E942B330E9404
:100A0000393008958EE10E94B63C019729F4109286
:100A1000430610924206089582E20E94B63C81305D
:100A2000910539F080E20E94B63C019739F482E0EA
:100A300090E09093430680934206089584E20E94DA
:100A4000B63C019731F483E090E0909343068093A5
:100A500042060895EF92FF920F931F93DF93CF9377
:100A6000CDB7DEB768970FB6F894DEBF0FBECDBF27
:100A70008091EA07882309F4B5C00E942915609186
:100A8000E8077091E9074091E6075091E707CE012A
:100A900001960E9457232DE236E038872F838B8101
:100AA0009C819A8789878D819E819C878B873E87D1
:100AB0002D878091ED079091EE07988B8F8780911D
:100AC000EF079091F0079A8B898B57E0E52EF12C78
:100AD000EC0EFD1E8E01035F1F4FC701B8010E947F
:100AE0001A12C8010E948023C7010E9480230E941D
:100AF0003F160E94572B0E94C9290E94572B68EE6F
:100B000073E080E090E00E94F7390E94770868EE79
:100B100073E080E090E00E94F7398DEE93E10E944F
:100B2000CA238DEE93E160E570E00E948F2385EE8D
:100B300093E10E94CA230AC088E161E00E94833CDD
:100B40008DEE93E160E570E00E948F2385EE93E1E6
:100B50006EE370E00E948F2385E10E94B63C01970E
:100B600059F38DEE93E10E94A12385EE93E10E945B
:100B7000A1230E94C92964EF71E080E090E00E9407
:100B8000F7390E946A0864EF71E080E090E00E940B
:100B9000F7390E945D0868EE73E080E090E00E9403
:100BA000F7398DE296E09C8B8B8B8091ED079091CD
:100BB000EE079E8B8D8B8091EF079091F007988FB9
:100BC0008F8B8E010D5E1F4FC80161E070E00E94A7
:100BD000D715C8010E9480230E94C929CE01019621
:100BE0000E94802368960FB6F894DEBF0FBECDBF7B
:100BF000CF91DF911F910F91FF90EF900895CF92C9
:100C0000DF92EF92FF920F931F93DF93CF93CDB7B5
:100C1000DEB762970FB6F894DEBF0FBECDBF6E0190
:100C20000894C11CD11CC60160E070E043E050E0B4
:100C30000E9457230E9429152DE236E038872F8322
:100C40008091ED079091EE079A8789878091EF0751
:100C50009091F0079C878B873E872D878B819C81A5
:100C6000988B8F878D819E819A8B898B67E0E62E8A
:100C7000F12CEC0EFD1E8E01035F1F4FC701B80162
:100C80000E941A12C8010E948023C7010E9480237B
:100C90000E94BA1683E090E00E94A4150E94C92920
:100CA00087E496E06AE070E00E948E1864EF71E0DD
:100CB00080E090E00E94F73984E496E066E970E015
:100CC0000E948E1868EE73E080E090E00E94F73991
:100CD0000E945D0868EE73E080E090E00E94F739C2
:100CE000C6010E94802362960FB6F894DEBF0FBE45
:100CF000CDBFCF91DF911F910F91FF90EF90DF90CB
:100D0000CF900895EF92FF920F931F93DF93CF93AD
:100D1000CDB7DEB7A4970FB6F894DEBF0FBECDBF38
:100D2000CE01019660E070E042E050E00E9457235F
:100D30008DE296E098878F838B819C819A87898743
:100D40008D819E819C878B878E01095F1F4FC80113
:100D500061E070E00E94D715C8010E9480238CE2F8
:100D600091E00E94BD2A83E090E00E94A4150E94B9
:100D7000572B0E94C9290E94572B0E94572B8CE2A7
:100D800091E00E94A0270E94572B0E94C9290E942F
:100D9000572B0E94770868EE73E080E090E00E9495
:100DA000F73904C08AE161E00E94833C85E10E943A
:100DB000B63C0197B9F38AE160E00E94833C0E944F
:100DC0006A0864EF71E080E090E00E94F7390E94C9
:100DD0005D086091E8077091E9074091E60750913E
:100DE000E707CE010D960E945723CE01439661E09E
:100DF00070E043E050E00E9457230E9429152DE245
:100E000036E03A8F298F8F8598899C8F8B8F8989BF
:100E10009A899E8F8D8F38A32F8F8D899E899AA353
:100E200089A38F89988D9CA38BA379E1E72EF12C60
:100E3000EC0EFD1E8E01015E1F4FC701B8010E941E
:100E40001A12C8010E948023C7010E9480230E94B9
:100E5000BA1682E090E00E94A4150E94572B0E94CF
:100E6000C9290E94572B00E010E084EC99E00E9411
:100E700051288DEE93E160E070E00E948F2385EEB3
:100E800093E160E070E00E948F230E94572B64E69C
:100E900070E080E090E00E94F7390E94572B64E6F2
:100EA00070E080E090E00E94F73980ED97E00E94CA
:100EB000BD2A68EE73E080E090E00E94F7390F5F92
:100EC0001F4F0230110589F687E496E06AE070E072
:100ED0000E948E1864EF71E080E090E00E94F73984
:100EE00084E496E066E970E00E948E1864EF71E099
:100EF00080E090E00E94F7390E945D0864EF71E0A5
:100F000080E090E00E94F739CE0143960E94802352
:100F1000CE010D960E948023CE0101960E9480236F
:100F2000A4960FB6F894DEBF0FBECDBFCF91DF9170
:100F30001F910F91FF90EF9008958091420690913C
:100F400043060097B9F41092E7071092E607109253
:100F5000E9071092E80781E090E0909331058093D3
:100F600030050E94680464E670E080E090E00E9432
:100F7000F739F9CF8130910599F41092E707109273
:100F8000E6071092E9071092E807909331058093E5
:100F900030050E9491030E942A050E94FF0513C09C
:100FA00082309105D1F483E090E09093E70780933D
:100FB000E6071092E9071092E807909331058093B5
:100FC00030050E9482068091420690914306019668
:100FD0009093430680934206089583309105E9F487
:100FE0009093E7078093E60781E090E09093E9070C
:100FF0008093E80782E090E090933105809330057C
:101000000E941D030E943B040E94EC0464E670E011
:1010100080E090E00E94F739F9CF089586E161E021
:101020000E94D03B88E161E00E94D03B8AE161E010
:101030000E94D03B8CE161E00E94D03B8EE160E0F9
:101040000E94D03B80E260E00E94D03B82E260E000
:101050000E94D03B84E260E00E94D03B089585E18D
:1010600060E00E94D03B85E160E00E94833C0E94EA
:101070000E080E94900880E00E9464350E941B18B0
:101080000E94CC1E0E9402058CE796E140E855E2E2
:1010900060E070E00E94C23E08950E945A3A0E94A9
:1010A0002F080E949D07FDCF84E496E00E942D1832
:1010B00087E496E00E942D18089587E496E064E6A0
:1010C00070E00E948E1868EE73E080E090E00E946D
:1010D000F739089584E496E064E670E00E948E1883
:1010E00068EE73E080E090E00E94F739089584E4B0
:1010F00096E066E970E00E948E1868EE73E080E08A
:1011000090E00E94F73987E496E06AE070E00E9480
:101110008E1868EE73E080E090E00E94F739089541
:101120000F931F9304E416E0C8016AE070E00E9488
:10113000A619C80164E670E00E948E1807E416E064
:10114000C8016BE070E00E94A619C80164E670E077
:101150000E948E181F910F910895FF920F931F9375
:10116000CF93DF930091340510913505C09132057E
:10117000D091330540E050E060E070E0FF24F3944C
:1011800091E012C010828C91882309F4F0822F5FC5
:101190003F4F319611962C173D07A4F39093EB0621
:1011A0004F5F5F4F6C0F7D1F401751076CF4FA01C2
:1011B000EE0FFF1FEE0FFF1FE551F94FDB01AA5B9A
:1011C000BA4F20E030E0E7CFDF91CF911F910F9130
:1011D000FF9008952F923F924F925F926F927F926D
:1011E0008F929F92AF92BF92CF92DF92EF92FF9237
:1011F0000F931F93DF93CF93CDB7DEB768970FB6EA
:10120000F894DEBF0FBECDBF7C01CE0101960E94D7
:101210004B23CE01079664E070E040E050E00E946E
:101220005723D7011296ED91FC911397EE0FFF1FF4
:10123000EE0FFF1F14968D919C911597E80FF91FE3
:10124000E551F94F81E0808390E1892E95E0992E58
:1012500088E1A82E85E0B82ECC24DD240DE2602E96
:1012600006E0702E1DE0212E312C2C0E3D1EB3E128
:101270004B2E512C4C0E5D1E01E0F7012281338173
:1012800064817581F901EE0FFF1FEE0FFF1FE60F5E
:10129000F71FEE0FFF1FE150F94F0190F081E02D95
:1012A000E150F04CEE0FFF1FEE0FFF1FEC0DFD1D88
:1012B000E05EFA4F8081833009F489C0D4014D91FA
:1012C0005C91420F531FF50120813181260F371F9A
:1012D00024303105B0F44530510598F48091320541
:1012E00090913305BC01469FC001479F900D569FCA
:1012F000900D1124F901EA5BFA4FE80FF91F1081F4
:1013000001C010E03A8B298B588B4F877E866D8603
:101310003E832D835C834B83C1010E948023112374
:1013200069F0EB81FC81EE0FFF1FEE0FFF1F8D8137
:101330009E81E80FF91FE551F94F0083D4014D91CB
:101340005C91440F551FF70182819381480F591F0B
:10135000D5012D913C91220F331F84819581280F57
:10136000391F24303105B0F44530510598F480918F
:10137000320590913305FC014E9FC0014F9F900DA7
:101380005E9F900D1124F901EA5BFA4FE80FF91FF7
:10139000108101C010E0388F2F8B5E8B4D8B7C8AC3
:1013A0006B8A3E832D835C834B83C2010E94802322
:1013B000112369F0EB81FC81EE0FFF1FEE0FFF1F81
:1013C0008D819E81E80FF91FE551F94F0083089444
:1013D000C11CD11C62E070E0860E971EA60EB71EDF
:1013E00074E0C716D10409F048CFCE0107960E94D9
:1013F0008023CE0101960E94802368960FB6F89450
:10140000DEBF0FBECDBFCF91DF911F910F91FF9037
:10141000EF90DF90CF90BF90AF909F908F907F9094
:101420006F905F904F903F902F900895FC018081C6
:101430009181009711F00E9434438DE061E00E9499
:10144000D03B8DE061E00E94833C6AEF70E080E079
:1014500090E00E94F7398DE060E00E94833C6AEFE3
:1014600070E080E090E00E94F739EBCFFC018081D2
:101470009181009711F00E9434438DE061E00E9459
:10148000D03B8DE061E00E94833C6AEF70E080E039
:1014900090E00E94F7398DE060E00E94833C6AEFA3
:1014A00070E080E090E00E94F739EBCFCF93DF93BC
:1014B0008130910509F07BC06F5F7F4F09F0D1C08B
:1014C00010924F0610924E0610925106109250063E
:1014D00010924B0610924A068CE090E00E943A016E
:1014E00090934D0680934C06009731F48AE496E081
:1014F00060E072E00E94160A82E090E090934F064E
:1015000080934E0610925706109256061092590676
:101510001092580610925B0610925A0610925D06C1
:1015200010925C0610925306109252068CE090E0E6
:101530000E943A019093550680935406009731F427
:1015400082E596E060E372E00E94360A82E090E075
:101550009093570680935606C2E7D6E0CE010E94CC
:101560004B23CE0106960E944B23CE010C960E947F
:101570004B23CE0142960E944B23689686E0CA3EDA
:10158000D80761F78BE297E06FEF7FEF4FEF5FEFE8
:101590000E94572383E397E00E944B2389E397E05F
:1015A0000E944B238BE497E00E944B235AC0892B67
:1015B00009F057C06F5F7F4F09F053C08BE497E08D
:1015C0000E94802389E397E00E94802383E397E0D1
:1015D0000E9480238BE297E00E948023CAEED6E02F
:1015E000269786E0CC36D80741F0E881F981019052
:1015F000F081E02DCE011995F3CF809154069091A2
:1016000055060E94E401109255061092540610925D
:1016100053061092520610925706109256061092D8
:1016200059061092580610925B0610925A061092B4
:101630005D0610925C0680914C0690914D060E94CA
:10164000E40110924D0610924C0610924B06109237
:101650004A0610924F0610924E06109251061092B2
:101660005006DF91CF91089580E090E06FEF7FEF1B
:101670000E94560A089581E090E06FEF7FEF0E948C
:10168000560A08958F929F92AF92BF92CF92DF92A7
:10169000EF92FF920F931F93CF93DF93EC015B01C7
:1016A0001616170624F060E672E00E94360AC5019D
:1016B000880F991F8A0D9B1D880F991F0E943A0160
:1016C000182F092FE82EF92EE114F10429F4CE0188
:1016D00065E972E00E94360A8E809F80812F902FEC
:1016E0009C01890120E030E022C0888599856C81C9
:1016F0007D81820F931F0E94CF43FC01EE0FFF1FDD
:10170000E80FF91FEE0FFF1FEC0DFD1D8281938185
:10171000D80113969C938E93129784819581159688
:101720009C938E9314972F5F3F4F0A5F1F4FCA8081
:10173000DB8028153905CCF2C6010E94E401FB824A
:10174000EA82198618868E819F819B878A87BD824F
:10175000AC82DF91CF911F910F91FF90EF90DF90BE
:10176000CF90BF90AF909F908F9008950F931F934D
:10177000CF93DF93182F092FEB018E819F81892B47
:1017800029F4CB016FEC72E00E94360AE12FF02FB2
:1017900028853985C901880F991F820F931F880FEB
:1017A000991FAA81BB81A80FB91F2F5F3F4F3987AF
:1017B00028878DE296E09183808312968D919C918B
:1017C00013979383828314968D919C91159795839B
:1017D00084838E819F8101979F838E83288539859D
:1017E0008C819D812817390711F419861886EE819E
:1017F000FF81309791F02C813D81C90164E070E058
:101800000E94CF436E177F0744F0C90162E070E089
:101810000E94CF43CE010E94420B812F902FDF9177
:10182000CF911F910F9108950F931F93CF93DF9343
:10183000EC018B016E817F818C819D816817790716
:1018400029F4660F771FCE010E94420B2A853B8543
:10185000C901880F991F820F931F880F991FEA8172
:10186000FB81E80FF91F2F5F3F4F3B872A87D80185
:1018700012968D919C9113979383828314968D91E8
:101880009C911597958384838C819D8128173907B6
:1018900011F41B861A868E819F8101969F838E8309
:1018A000DF91CF911F910F9108952F923F924F9208
:1018B0005F926F927F928F929F92AF92BF92CF92E0
:1018C000DF92EF92FF920F931F93DF93CF93CDB7E9
:1018D000DEB7A4970FB6F894DEBF0FBECDBF5C0194
:1018E0006B010E94AD080DE2E02E06E0F02EFA82B8
:1018F000E982D60112962D913C9113973C832B835C
:1019000014968D919C9115979E838D83F886EF8216
:101910003A8729879C878B878E01095F1F4FC801F3
:101920000E94EA08C8010E948023D6011296ED9118
:10193000FC911397EE0FFF1FEE0FFF1F14968D9172
:101940009C911597E80FF91FE25AF94F81E08083C7
:10195000CE2CEF2CADE02A2E312C2C0E3D1E2E016C
:101960000894411C511CF3E16F2E712C6C0E7D1EEE
:1019700011E0E9E18E2E912C8C0E9D1E3BC0C98E8C
:10198000EA8E8B819C819C8F8B8F8D819E819E8F17
:101990008D8FC4010E94EA08C4010E9480232B811C
:1019A0003C818D819E81F901EE0FFF1FEE0FFF1F1D
:1019B000E80FF91FE25AF94F1083FC01EE0FFF1FE9
:1019C000E80FF91FEE0FFF1FC901880F991F820F43
:1019D000931F23E0880F991F2A95E1F7E80FF91F5D
:1019E000EE58F94F828193819C838B83848195810A
:1019F0009E838D83CD86EE86F50182819381988BBF
:101A00008F87848195819A8B898BC201B1010E9455
:101A10006123892B11F000E019C0CB8AEC8A8091F8
:101A20002D0790912E079E8B8D8B80912F07909183
:101A30003007988F8F8BC201B3010E94612300E0B1
:101A4000892B09F401E0C3010E948023C1010E9497
:101A50008023002309F093CF8DE296E098A38F8F27
:101A6000D50112968D919C9113979AA389A31496F0
:101A70008D919C9115979CA38BA38E01015E1F4FA6
:101A8000C8010E94EA08C8010E948023D50112966D
:101A9000ED91FC911397EE0FFF1FEE0FFF1F1496B1
:101AA0008D919C911597E80FF91FE25AF94F81E04B
:101AB0008083CE0101960E948023A4960FB6F894ED
:101AC000DEBF0FBECDBFCF91DF911F910F91FF9071
:101AD000EF90DF90CF90BF90AF909F908F907F90CE
:101AE0006F905F904F903F902F9008950F931F93AA
:101AF000CF93DF93EC018B011616170624F061E0FB
:101B000073E00E94160AB801660F771F600F711FFD
:101B1000660F771F8A819B810E943C029B838A8388
:101B2000009729F4CE0166E373E00E94160A1D8334
:101B30000C83DF91CF911F910F9108950F931F9305
:101B4000CF93DF93EC018B016E817F818C819D812E
:101B50006817790729F4660F771FCE010E94760D6A
:101B60002E813F81C901880F991F820F931F880F13
:101B7000991FEA81FB81E80FF91F2F5F3F4F3F83D9
:101B80002E83D80112968D919C9113979383828313
:101B900014968D919C91159795838483DF91CF91B5
:101BA0001F910F9108952F923F924F925F926F92E3
:101BB0007F928F929F92AF92BF92CF92DF92EF92DD
:101BC000FF920F931F93DF93CF93CDB7DEB7C65627
:101BD000D0400FB6F894DEBF0FBECDBF3C01DC0194
:101BE00012964D915C91139714968D919C91159737
:101BF000FA01EE0FFF1FEE0FFF1FE80FF91FE25A69
:101C0000F94F21E02083FC01EE0FFF1FE80FF91FC1
:101C1000EE0FFF1FCA01880F991F840F951F53E015
:101C2000880F991F5A95E1F7E80FF91FEE58F94F01
:101C300080912D0790912E079383828380912F07A7
:101C400090913007958384834DE2E42E46E0F42E94
:101C5000FA82E98212968D919C9113979C838B83D3
:101C600014968D919C9115979E838D8382E596E0C5
:101C70008E010F5F1F4FB8010E94140CC8010E9413
:101C80008023D3011296ED91FC911397EE0FFF1F65
:101C9000EE0FFF1F14968D919C911597E80FF91F79
:101CA000EE0FFF1FE150F94F809130059091310503
:101CB000918380831092EA068CE796E162E673E0F6
:101CC0000E943443CE0107960E944B2310922907AD
:101CD000BE2C1F2D9FE4E92EF12CEC0EFD1EAA2434
:101CE000A39485E2482E512C4C0E5D1E0BE2202E53
:101CF000312C2C0E3D1EB1E38B2E912C8C0E9D1E93
:101D000004C21192019684179507DCF32F5F3F4FB1
:101D10002617370754F4F901EE0FFF1FEE0FFF1FD0
:101D2000E25AF94F80E090E0EECFBB8A1C8BF301C2
:101D3000828193819E8B8D8B84819581988F8F8BEF
:101D4000B98E1A8F80913507909136079C8F8B8FB3
:101D500080913707909138079E8F8D8FCE014396E3
:101D6000BE01675E7F4F0E94550CCE0149960E94CE
:101D70008023CE0143960E94802320913507309125
:101D800036078091370790913807FC01EE0FFF1F4F
:101D9000E80FF91FEE0FFF1FC901880F991F820F6F
:101DA000931FA3E0880F991FAA95E1F7E80FF91F89
:101DB000EE58F94F8281938190933C0780933B07C3
:101DC0008481958190933E0780933D07109232075E
:101DD0001092310792C1AA0FBB1FFD01E85FFA4FB5
:101DE000608171818091350790913607680F791F66
:101DF000A050BB4F4D915C9180913707909138076F
:101E0000480F591FC7010E945723BF8E18A3F7011F
:101E1000A281B381BAA3A9A3248135813CA32BA3BA
:101E20002430310510F5A530B105F8F48091320564
:101E300090913305AC01A49FC001A59F900DB49F64
:101E4000900D1124F901EA5BFA4FE80FF91F808128
:101E5000882359F0AA0FBB1FAA0FBB1FA20FB31FE5
:101E6000A25AB94F0C910A2501C000E0CE014F964D
:101E70000E948023002309F434C1D70112962D91CA
:101E80003C911397F901EE0FFF1FEE0FFF1F149601
:101E90008D919C911597E80FF91FE25AF94FA08296
:101EA000BDA21EA338A72FA39AA789A782E596E013
:101EB000B2010E94140CC2010E948023F701A2818A
:101EC000B381848195812091350730913607FC01DB
:101ED000EE0FFF1FE80FF91FEE0FFF1FCD01880F58
:101EE000991F8A0F9B1F63E0880F991F6A95E1F77E
:101EF000E80FF91FEE58F94F3383228340913707DB
:101F00005091380755834483CD01821B930B8F5F1B
:101F10009F4F19F423E030E002C021E030E0F701E8
:101F200064817581CB01841B950BFFEF8F3F9F0769
:101F300029F0019729F422E030E002C024E030E0EB
:101F4000AA0FBB1FAA0FBB1FA60FB71FAA0FBB1F4D
:101F5000A150B94F2D933C93609134057091350594
:101F6000409132055091330520E030E007C01192D6
:101F7000019684179507DCF32F5F3F4F261737072D
:101F800054F4F901EE0FFF1FEE0FFF1FE25AF94F55
:101F900080E090E0EECFBBA61CA7D30112968D91F6
:101FA0009C9113979EA78DA714968D919C91159740
:101FB00098AB8FA7B9AA1AABF701828193819CAB2A
:101FC0008BAB848195819EAB8DABC101B4010E9426
:101FD000550CC4010E948023C1010E948023F1E0BE
:101FE000F093EA06C0903405D0903505A0913205F3
:101FF000B091330540E050E00DC08191882319F481
:102000001092EA0614C02F5F3F4F2A173B07ACF32C
:102010004F5F5F4F4C155D0554F4FA01EE0FFF1F43
:10202000EE0FFF1FE551F94F20E030E0EECFBFAAE1
:1020300018AFF701828193819AAF89AF848195812E
:102040009CAF8BAF40E050E060E070E00DC080815D
:10205000882311F06F5F7F4F2F5F3F4F31962A1714
:102060003B07ACF34F5F5F4F4C155D0554F4FA012D
:10207000EE0FFF1FEE0FFF1FE551F94F20E030E09C
:10208000EECF8091490790914A076817790784F04D
:1020900070934A076093490789AD9AAD90934E07B4
:1020A00080934D078BAD9CAD9093500780934F0765
:1020B000CE01C7960E9480238091EA06882389F08A
:1020C000D70112968D919C9113979A8789871496C0
:1020D0008D919C9115979C878B87C7010E948023C7
:1020E00014C0C7010E94802380913107909132076C
:1020F00001969093320780933107A0913107B091F8
:102100003207A430B1050CF466CE80915806909148
:102110005906892B09F488C18091EA06882309F0C1
:1021200083C1CE010D9662E576E00E94B60B8F85E5
:102130009889909336078093350789899A89909377
:10214000380780933707CE010D960E948023609157
:10215000340570913505409132055091330520E0EA
:1021600030E0D6CDFE01E15BFF4F2DE236E031835A
:10217000208389859A85938382838B859C8595832B
:102180008483922E132FA1E42A2E312C2C0E3D1E77
:102190007F017DE3472E512C4C0E5D1E63E4A62E7D
:1021A000B12CAC0EBD1E59E4C52ED12CCC0EDD1EBB
:1021B0003FC0F60190821183D70112968D919C91B8
:1021C00013979383828314968D919C911597958391
:1021D00084838AE496E0B6010E949E0DC6010E94A7
:1021E0008023F7012281338184819581FC01EE0FE8
:1021F000FF1FE80FF91FEE0FFF1FC901880F991F7E
:10220000820F931FB3E0880F991FBA95E1F7E80F8B
:10221000F91FEE58F94F82819381D70113969C9351
:102220008E9312978481958115969C938E93149723
:102230009DAE1EAFF3018281938121969FAF8EAF39
:10224000219784819581D1018D939C93C701B2011F
:102250000E946123892B11F000E01AC0F5019082E1
:10226000118380912D0790912E0793838283809113
:102270002F079091300795838483C701B5010E9491
:10228000612300E0892B09F401E0C5010E9480234D
:10229000C2010E948023002309F08BCFA4C0FE015D
:1022A000E15BFF4F2DE236E03183208380914D07C3
:1022B00090914E079383828380914F0790915007AE
:1022C00095838483A5E58A2E912C8C0E9D1E522E1B
:1022D000132F322E432E7F01EBE5AE2EB12CAC0E28
:1022E000BD1E71E6C72ED12CCC0EDD1E44C0D6011A
:1022F0005C9211961C931197F7018281938113963A
:102300009C938E9312978481958115969C938E93BE
:1023100014978AE496E0B6010E949E0DC6010E94C1
:102320008023D70112962D913C91139714968D918D
:102330009C911597FC01EE0FFF1FE80FF91FEE0FA0
:10234000FF1FC901880F991F820F931F03E0880F99
:10235000991F0A95E1F7E80FF91FEE58F94F8281AE
:10236000938113969C938E931297848195811596F1
:102370009C938E931497F40130824182D30112967C
:102380008D919C9113979383828314968D919C9148
:10239000159795838483C701B4010E946123892B1B
:1023A00011F000E01AC0F5015082118380912D07D1
:1023B00090912E079383828380912F07909130070D
:1023C00095838483C701B5010E94612300E0892BB6
:1023D00009F401E0C5010E948023C4010E9480230A
:1023E000002309F084CFC7010E948023CE01079605
:1023F0000E948023CA59DF4F0FB6F894DEBF0FBE8C
:10240000CDBFCF91DF911F910F91FF90EF90DF90A3
:10241000CF90BF90AF909F908F907F906F905F9084
:102420004F903F902F9008958091EA06882309F0FD
:1024300099CE35CF2F923F924F925F926F927F92BB
:102440008F929F92AF92BF92CF92DF92EF92FF92C4
:102450000F931F93DF93CF93CDB7DEB7E6970FB6F9
:10246000F894DEBF0FBECDBF6C015B01DC0112969C
:102470004D915C911397FA01EE0FFF1FEE0FFF1FB6
:1024800014968D919C911597E80FF91FE25AF94F18
:1024900021E02083FC01EE0FFF1FE80FF91FEE0F74
:1024A000FF1FCA01880F991F840F951F23E0880F13
:1024B000991F2A95E1F7E80FF91FEE58F94F80911F
:1024C0002D0790912E079383828380912F079091FF
:1024D0003007958384830DE2E02E06E0F02EFA8229
:1024E000E98212968D919C9113979C838B8314960D
:1024F0008D919C9115979E838D8382E596E08E0148
:102500000F5F1F4FB8010E94140CC8010E94802366
:102510008CE796E169E773E00E9434431092290743
:10252000882483941FE1612E712C6C0E7D1EB3E113
:102530002B2E312C2C0E3D1EA9E14A2E512C4C0E77
:102540005D1E9E2CEF2CFF24F39426C1B9016E1B57
:102550007F0BFB017093400760933F079A01281B94
:10256000390B30934207209341073093090520939C
:102570000805709301056093000580E02115310581
:1025800009F481E080930A0510920B0540E0309732
:1025900009F441E04093020510920305882319F0E5
:1025A0008FEF9FEF02C080E090E090930D05809345
:1025B0000C05442319F08FEF9FEF02C080E090E0FC
:1025C000909305058093040588279927821B930B18
:1025D00090930F0580930E05882799278E1B9F0BDC
:1025E00090930705809306051092320710923107E9
:1025F000CBC0AA0FBB1FFD01E85FFA4F608171815C
:102600008091350790913607680F791FA050BB4F16
:102610004D915C918091370790913807480F591F71
:10262000C3010E9457238CE796E169E873E00E949A
:1026300034439D86EE86A9A1BAA1B88BAF872BA1A2
:102640003CA13A8B298B2430310510F5A530B1051A
:10265000F8F48091320590913305FC01AE9FC001E2
:10266000AF9F900DBE9F900D1124F901EA5BFA4FC8
:10267000E80FF91F8081882359F0AA0FBB1FAA0F0A
:10268000BB1FA20FB31FA25AB94F0C91082501C05E
:1026900000E0CE010D960E948023002309F468C05B
:1026A0008CE796E161EA73E00E94344329A13AA1E4
:1026B000F901EE0FFF1FEE0FFF1F8BA19CA1E80F8A
:1026C000F91FE25AF94F80829B8AEC8A3E8B2D8B50
:1026D000988F8F8B82E596E0B1010E94140CC101A6
:1026E0000E94802329A13AA18BA19CA1FC01EE0F9D
:1026F000FF1FE80FF91FEE0FFF1FC901880F991F79
:10270000820F931F23E0880F991F2A95E1F7E80FA6
:10271000F91FEE58F94F8091350790913607938352
:102720008283809137079091380795838483998EAF
:10273000EA8ED50112968D919C9113979C8F8B8F69
:1027400014968D919C9115979E8F8D8FC301B20128
:102750000E9461238C01C2010E948023012B41F061
:102760008CE796E16AEA73E00E943443F09229070D
:10277000C3010E9480238091310790913207019616
:102780009093320780933107A0913107B0913207BF
:10279000A430B1050CF42DCF8091580690915906C4
:1027A000892B09F4E9C080912907882309F0E4C046
:1027B0008CE796E16DEB73E00E9434438CE796E181
:1027C0006DEC73E00E943443CE01079662E576E03B
:1027D0000E94B60B89859A859093360780933507BA
:1027E0008B859C859093380780933707CE01079699
:1027F0000E9480234091350750913607209137077A
:1028000030913807F901EE0FFF1FE20FF31FEE0FB3
:10281000FF1FCA01880F991F840F951FB3E0880F0F
:10282000991FBA95E1F7E80FF91FEE58F94F828129
:10283000938190933C0780933B070480F581E02DC2
:10284000F0933E07E0933D07BFEF8F3F9B0709F0F2
:102850007DCECACE8DE296E098A38F8FF5012281BE
:1028600033813AA329A3248135813CA32BA3182FBC
:10287000E92EAFE14A2E512C4C0E5D1EF5E26F2E73
:10288000712C6C0E7D1EEBE28E2E912C8C0E9D1EFB
:1028900071E3A72EB12CAC0EBD1E33C019ABEAAA52
:1028A00089A19AA19CAB8BAB8BA19CA19EAB8DAB5C
:1028B0008AE496E0B5010E949E0DC5010E94802326
:1028C00029A13AA18BA19CA1FC01EE0FFF1FE80FEB
:1028D000F91FEE0FFF1FC901880F991F820F931F69
:1028E00023E0880F991F2A95E1F7E80FF91FEE58AA
:1028F000F94F828193819AA389A3848195819CA3B6
:102900008BA31DA3EEA2D60112968D919C911397D5
:1029100098A78FA314968D919C9115979AA789A734
:10292000C201B3010E946123892B11F000E019C09C
:102930001BA7ECA680912D0790912E079EA78DA72F
:1029400080912F079091300798AB8FA7C201B401F7
:102950000E94612300E0892B09F401E0C4010E9478
:102960008023C3010E948023002309F097CFCE016A
:102970004F960E94802305C080912907882309F083
:1029800069CFE6960FB6F894DEBF0FBECDBFCF91EC
:10299000DF911F910F91FF90EF90DF90CF90BF904C
:1029A000AF909F908F907F906F905F904F903F90EF
:1029B0002F9008950F931F93CF93DF93182F092F14
:1029C000EB018E819F81892B29F4CB0160EE73E0AE
:1029D0000E94160AE12FF02FAA81BB812E813F8130
:1029E000215030403F832E83C901880F991F820FE9
:1029F000931F880F991FA80FB91F8DE296E091834E
:102A0000808312968D919C91139793838283149661
:102A10008D919C911597958384832115310591F0B3
:102A2000EC81FD81CF0164E070E00E94CF4362172A
:102A3000730744F0CF0162E070E00E94CF43CE0103
:102A40000E94760D812F902FDF91CF911F910F91D2
:102A500008950F931F93DF93CF93CDB7DEB762979F
:102A60000FB6F894DEBF0FBECDBF8E010F5F1F4FB4
:102A700008C0C80162E576E00E94B60BC8010E945A
:102A800080238091580690915906892B91F71092D6
:102A900029078E01095F1F4F08C0C8016AE476E06C
:102AA0000E94DA14C8010E94802380915006909100
:102AB0005106892B91F71092280710922707CE0113
:102AC0000D966FEF7FEF4FEF5FEF0E9457236F85FB
:102AD000788949895A8920E030E00FC01D927183BE
:102AE0006083538342830196369687309105B1F710
:102AF0002F5F3F4F26303105B1F0D901AA0FBB1F20
:102B0000AA0FBB1FA25AB94FF901EE0FFF1FE20F28
:102B1000F31F13E0EE0FFF1F1A95E1F7EC58F94F82
:102B200080E090E0DBCF10922907CE010D960E9445
:102B3000802362960FB6F894DEBF0FBECDBFCF9153
:102B4000DF911F910F910895CF93DF93EC01809156
:102B50003005909131059E01281B390BC9013FEFCB
:102B60008F3F9307C1F02FEF8F3F920709F044F496
:102B70003FEF8D3F930761F08E5F9F4F89F40EC04A
:102B80008230910559F08330910529F0019741F485
:102B90000E94182E05C00E94393002C00E94CF2B1F
:102BA000D0933105C0933005DF91CF910895CF9335
:102BB000DF93FC01EB01448155818091E607909100
:102BC000E707481B590B5093440740934307228162
:102BD00033818091E8079091E907281B390B3093E6
:102BE0004607209345074130510519F482E090E0F3
:102BF00011C04F5F5F4F19F484E090E00BC02130AB
:102C0000310519F481E090E005C02F5F3F4F31F4AA
:102C100083E090E00E94A4150E94572BC330D10599
:102C200059F18091E6079091E70720914307309191
:102C30004407820F931F9093E7078093E6078091E4
:102C4000E8079091E9072091450730914607820FE8
:102C5000931F9093E9078093E807C130D10519F4D9
:102C60000E942B3309C0209719F40E942F3404C00E
:102C7000229711F40E946033DF91CF910895CF9293
:102C8000DF92EF92FF920F931F93DF93CF93CDB715
:102C9000DEB768970FB6F894DEBF0FBECDBFCE018A
:102CA00001960E944B2337E0E32EF12CEC0EFD1E23
:102CB0002DE2C22E26E0D22E8E01035F1F4F28C0C8
:102CC000C7016AE476E00E94DA1489859A859C83BC
:102CD0008B838B859C859E838D83C7010E94802377
:102CE0008091500690915106892B91F0DE86CD8619
:102CF0008B819C81988B8F878D819E819A8B898B0C
:102D0000C80161E070E00E94D715C8010E948023CD
:102D10008091500690915106892B91F68DE296E0B4
:102D20009C8B8B8B8B819C819E8B8D8B8D819E81CF
:102D3000988F8F8B8E010D5E1F4FC80163E070E08E
:102D40000E94D715C8010E9480230E94572BCE01F4
:102D500001960E94802368960FB6F894DEBF0FBEDE
:102D6000CDBFCF91DF911F910F91FF90EF90DF903A
:102D7000CF9008950F931F93DF93CF93CDB7DEB716
:102D80002C970FB6F894DEBF0FBECDBFCE010196D3
:102D90000E944B238E01095F1F4F0DC0C8016AE4DA
:102DA00076E00E94DA14C80161E070E00E94D71555
:102DB000C8010E9480238091500690915106892B72
:102DC00069F7CE0101960E9480232C960FB6F894E5
:102DD000DEBF0FBECDBFCF91DF911F910F91089540
:102DE0000F931F93DF93CF93CDB7DEB72C970FB61A
:102DF000F894DEBF0FBECDBFCE0101960E944B23DB
:102E00008E01095F1F4F8091500690915106892BCA
:102E100039F18091EA07882319F5C8016AE476E060
:102E20000E94DA14C80162E070E00E94D715C80160
:102E30000E948023E8CF89ED96E165E174E00E946D
:102E40003443CE0101960E9480232C960FB6F8944D
:102E5000DEBF0FBECDBFCF91DF911F910F910895BF
:102E60008091EA07882369F3E6CF9F92AF92BF92E1
:102E7000CF92DF92EF92FF920F931F93DF93CF9346
:102E8000CDB7DEB72C970FB6F894DEBF0FBECDBF1F
:102E9000CE0101960E944B2381E080935E068CE771
:102EA00096E161E274E00E9434431092320710927E
:102EB000310741E0A42EB12C992493943DE2C32E16
:102EC00036E0D32E27E0E22EF12CEC0EFD1E84C05E
:102ED0000091E6071091E7074091300550913105C8
:102EE00041505040DA01AA0FBB1F4F5F5F4FFD01F9
:102EF000E051FB4F20813181200F311F3E832D8314
:102F00006091E8077091E907A850BB4F0D90BC9104
:102F1000A02DA60FB71FBC83AB83FD01EE0FFF1FD3
:102F2000EE0FFF1FE20FF31FE25AF94F8081882353
:102F300051F4243031053CF4A530B10524F437FDBB
:102F400002C0B7FF24C0CA0101969093480780933E
:102F50004707059724F0B0924807A0924707E091F1
:102F60004707F09148073197EE0FFF1FDF01A0518F
:102F7000BB4F8D919C91800F911F9E838D83E85054
:102F8000FB4F80819181860F971F9C838B838B8160
:102F90009C812D813E81FC01EE0FFF1FEE0FFF1F74
:102FA000E20FF31FE25AF94F9082D886CF829A87B8
:102FB00089873C872B87C70160E070E00E94D715A6
:102FC000C7010E94802380913107909132070196BA
:102FD0009093320780933107209134053091350565
:102FE0008091320590913305AC01249FC001259F4B
:102FF000900D349F900D112401972091310730914D
:103000003207281739070CF463CFCE0101960E94CE
:1030100080232C960FB6F894DEBF0FBECDBFCF91A4
:10302000DF911F910F91FF90EF90DF90CF90BF90B5
:10303000AF909F90089586E495E00E94B03481E3BC
:1030400094E164E170E00E94273510922A078823FA
:1030500019F081E080932A070895FC0180915107BF
:10306000803390F480838F5F80935107815090E08C
:10307000FC01EE0FFF1FE80FF91FEE5AF84F88EB27
:103080009BE09283818308958FEF80830895FC01F4
:103090002081203308F041C08181992787FD9095D8
:1030A00048E850E0481B590B440F551F440F551F6B
:1030B0006417750784F08281992787FD909548E50C
:1030C00052E0481B590B440F551F440F551F6417FE
:1030D00075070CF4AB0142505040CA01AA2797FD76
:1030E000A095BA2F74E0880F991FAA1FBB1F7A956D
:1030F000D1F763E0B695A795979587956A95D1F72F
:103100004FB7F89430E0F901EE0FFF1FE20FF31F05
:10311000EE5AF84F928381834FBF0895AF92BF92CA
:10312000CF92DF92EF92FF920F931F93CF93DF9393
:10313000EC019B0182E0603278070CF048C077FF19
:1031400003C020E030E005C0653B710514F024EBBE
:1031500030E000D00F92B901882777FD8095982F35
:103160002981332727FD3095E8E8AE2EB12CA21A2D
:10317000B30AAA0CBB1CAA0CBB1CCC24B7FCC09481
:10318000DC2CEA81FF27E7FDF09528E532E02E1BD5
:103190003F0B220F331F220F331F442737FD40956B
:1031A000542FEDB7FEB7218332834383548320E04D
:1031B00030E040E050E004EBE02EF12C012D112D29
:1031C0000E9447439B010F900F900F900F90CE01EC
:1031D000B9010E944718DF91CF911F910F91FF9085
:1031E000EF90DF90CF90BF90AF900895CF92DF9295
:1031F000EF92FF921F93CF93DF93EC01162F7A018A
:1032000069018881803308F093C0862F61E00E94B5
:10321000D03B888190E0FC01EE0FFF1FE80FF91F03
:10322000EE5AF84F1F738081807C812B808380E26F
:1032300092E08E199F0964E070E00E94CF43698399
:1032400080E699E08C199D0964E070E00E94CF430C
:103250006A83A8818A2F6CE00E94AF43682F70E0D8
:10326000AB01440F551F460F571F440F551F440F06
:10327000551F20E030E0C901840F951FFC01EE0FBF
:10328000FF1FE80FF91FEE5AF84F808186FD44C0FA
:103290002F5F3F4F2C30310571F753C010928000E3
:1032A00082E0809381001092850010928400B19A90
:1032B00080916F00826080936F002EC06230710534
:1032C00069F41092900082E0809391001092950032
:1032D0001092940088BB809371001EC0633071050A
:1032E00069F41092A00082E08093A1001092A500E2
:1032F0001092A40089BB809372000EC0672B61F40A
:103300001092200182E080932101109225011092F9
:1033100024018ABB809373008A2F90E0FC01EE0F9A
:10332000FF1FE80FF91FEE5AF84F808180648083F9
:103330008881DF91CF911F91FF90EF90DF90CF9028
:1033400008956130710509F0B9CFA8CF40E252E08D
:1033500020E639E00E94F6180895EF92FF920F934D
:103360001F93CF93DF938B017A01EC01DC01AE5107
:10337000B84F8C9187FF04C0FB011182108237C0C7
:10338000AE01440F551F4C0F5D1F440F551F440FD6
:10339000551F2C91332727FD3095240F351F809121
:1033A000510790E02817390714F58C91992787FD6C
:1033B0009095840F951FFC01EE0FFF1FE80FF91F7A
:1033C000EE5AF84F808186FF12C08C91992787FDB5
:1033D0009095840F951FFC01EE0FFF1FE80FF91F5A
:1033E000EE5AF84F80818F7360E00E94833CDE01CB
:1033F000AE51B84F8C918F5F8C93AE01440F551F27
:103400004C0F5D1F440F551F440F551F2C91332740
:1034100027FD3095240F351F8091510790E0281724
:1034200039070CF04DC08C918C300CF049C0F8017C
:10343000208131818C91992787FD9095840F951F6C
:10344000FC01EE0FFF1FE80FF91FEE5AF84F8181C4
:103450009281280F391FF701318320838C9199279E
:1034600087FD9095840F951FFC01EE0FFF1FE80F5D
:10347000F91FEE5AF84F808186FF2AC08C91992758
:1034800087FD9095840F951FFC01EE0FFF1FE80F3D
:10349000F91FEE5AF84F80818F7361E00E94833CE0
:1034A00017C080E49CE904C0F801808191810496F2
:1034B000F70191838083CE51D84F8FEF888308C066
:1034C000F80180819181049680549C4950F3ECCF9F
:1034D000DF91CF911F910F91FF90EF9008951F9270
:1034E0000F920FB60F920BB60F9211242F933F93AA
:1034F0004F935F936F937F938F939F93AF93BF93FC
:10350000EF93FF9380E090E064E271E048E251E0E5
:103510000E94AD19FF91EF91BF91AF919F918F9153
:103520007F916F915F914F913F912F910F900BBEC3
:103530000F900FBE0F901F9018951F920F920FB60D
:103540000F920BB60F9211242F933F934F935F93DB
:103550006F937F938F939F93AF93BF93EF93FF935B
:1035600083E090E064EA70E048EA50E00E94AD1920
:10357000FF91EF91BF91AF919F918F917F916F914B
:103580005F914F913F912F910F900BBE0F900FBE07
:103590000F901F9018951F920F920FB60F920BB6B7
:1035A0000F9211242F933F934F935F936F937F93C9
:1035B0008F939F93AF93BF93EF93FF9382E090E03D
:1035C00064E970E048E950E00E94AD19FF91EF9185
:1035D000BF91AF919F918F917F916F915F914F912B
:1035E0003F912F910F900BBE0F900FBE0F901F9029
:1035F00018951F920F920FB60F920BB60F921124CF
:103600002F933F934F935F936F937F938F939F93EA
:10361000AF93BF93EF93FF9381E090E064E870E095
:1036200048E850E00E94AD19FF91EF91BF91AF9132
:103630009F918F917F916F915F914F913F912F91CA
:103640000F900BBE0F900FBE0F901F901895DC01CE
:103650001496ED91FC911597F7FD21C0409132052C
:1036600050913305E417F507D4F412962D913C914F
:10367000139737FD14C080913405909135052817B4
:1036800039076CF4249FC001259F900D349F900D45
:103690001124EA5BFA4FE80FF91F8081089580E05A
:1036A00008958130910561F46F5F7F4F91F48BEE47
:1036B00097E060E070E040E050E00E9457230895FA
:1036C000892B39F46F5F7F4F21F48BEE97E00E94D6
:1036D0008023089580E090E06FEF7FEF0E94511B00
:1036E000089581E090E06FEF7FEF0E94511B0895F5
:1036F0001092AE131092AD131092AC131092AB1344
:103700001092AA131092A9130895EF92FF920F93AB
:103710001F937B018C0120E030E040EA50E40E94DE
:103720001E37181664F4C801B70120E030E040EFFE
:1037300051E40E94CF35882314F481E017C0C801FA
:10374000B70120E030E04CE052E40E941E3718162A
:1037500064F4C801B70120E030E04CE852E40E9474
:10376000CF35882314F482E001C08AE01F910F91C5
:10377000FF90EF9008952F923F924F925F926F9239
:103780007F928F929F92AF92BF92CF92DF92EF92F1
:10379000FF920F931F93CF93DF93EC01A5EBB5E05E
:1037A000E0E0F0E02D903C901197C215D3050CF4A9
:1037B00055C02F010894411C511C12960D911C916B
:1037C0001397C017D1070CF049C0EE0FFF1FE1534C
:1037D000FA4FE080F180B70180E090E00E946C3603
:1037E0003B014C01C219D309BE01882777FD8095A2
:1037F000982F0E946E365B016C0102191309B80103
:10380000882777FD8095982F0E946E369B01AC012A
:10381000C601B5010E94D3355B016C01440C551CF7
:103820008FEC95E0480E591EF20180819181E81AD3
:10383000F90A00E010E0C801B7010E946C369B0154
:10384000AC01C601B5010E9422379B01AC01C40145
:10385000B3010E946B350E943B360EC03196129622
:10386000EC30F10509F09ECFCE55DA401CF46CE83F
:1038700070E002C06AE070E0CB01DF91CF911F9150
:103880000F91FF90EF90DF90CF90BF90AF909F90FF
:103890008F907F906F905F904F903F902F90089502
:1038A0002F923F924F925F926F927F928F929F9250
:1038B000AF92BF92CF92DF92EF92FF920F931F933E
:1038C000CF93DF93C3EBD3E19BEAA92E93E1B92E0B
:1038D0008BED882E8BE0982E01E0C02ED12C0F2E80
:1038E000F0E04F2EF0E05F2EF0E06F2EF0E07F2E44
:1038F000F02D18EE212E13E0312E488259826A8273
:103900007B8289ED96E16AE374E00E94804289ED52
:1039100096E16C2D4AE050E00E94F041C29C80018B
:10392000C39C100DD29C100D11240F50184FEE2483
:10393000FF2426C0F801619171918F0180E090E031
:103940000E946C369B01AC01688179818A819B81E0
:103950000E946B35688379838A839B83F40160813D
:10396000718189ED96E14AE050E00E94DF4189EDE6
:1039700096E16DE474E00E9480420894E11CF11C21
:10398000F50180819181E816F906A0F289ED96E1B2
:103990000E943841F501608171816115710589F0DE
:1039A00080E090E00E946C369B01AC0168817981D7
:1039B0008A819B810E94D335688379838A839B8324
:1039C00004C0488259826A827B8224960894C11C72
:1039D000D11C82E090E0A80EB91EEAEEF3E08E0E54
:1039E0009F1EF3E1CB3BDF0709F087CF89ED96E11E
:1039F0000E9438412BEB33E1C0913005D091310565
:103A0000CC0FDD1FCC0FDD1FC45ADA4F40E050E071
:103A100060EA70ECF901408351836283738388818B
:103A2000E82FF0E0E330F10578F4EE0FFF1FEE0F22
:103A3000FF1FE155FC4E80819181A281B381F90184
:103A400080839183A283B3832C5F3F4F2196F3E160
:103A50002B3C3F07F9F6DF91CF911F910F91FF901B
:103A6000EF90DF90CF90BF90AF909F908F907F901E
:103A70006F905F904F903F902F9008956F927F923C
:103A80008F929F92AF92BF92CF92DF92EF92FF926E
:103A90000F931F93DF93CF93CDB7DEB72C970FB65D
:103AA000F894DEBF0FBECDBFCE0101960E944B231E
:103AB00089ED96E161E574E00E9434435BEBA52E4D
:103AC00053E1B52E4BECE42E43E1F42ECC24DD245F
:103AD0003DE2632E36E0732E27E0822E912C8C0E71
:103AE0009D1E01E0F50160817181828193810E94B8
:103AF000851BF701808390E0F601E25CFA4F20819C
:103B00003181A901849F9001859F300D949F300DD4
:103B100011244091E8075091E907240F351F3C8399
:103B20002B83F601EA5CFA4F20813181FC01E29F90
:103B3000C001E39F900DF29F900D11242091E607A4
:103B40003091E707820F931F9E838D8389ED96E165
:103B500064E674E00E94804289ED96E1F70160819D
:103B60004AE050E00E94F04178866F828B819C8110
:103B70009A8789878D819E819C878B87C4010E944B
:103B8000271B182FC4010E948023112309F454C05D
:103B90000093EA078B819C819093EE078093ED0759
:103BA0008D819E819093F0078093EF0789ED96E1D8
:103BB00068E674E00E9480426091E8077091E9072E
:103BC00089ED96E14AE050E00E944E4289ED96E18F
:103BD00065E774E00E9480426091E6077091E70714
:103BE00089ED96E14AE050E00E944E4289ED96E16F
:103BF00068E774E00E94804289ED96E16FE774E027
:103C00000E9480426091ED077091EE0789ED96E188
:103C10004AE050E00E944E4289ED96E16AE874E085
:103C20000E9480426091EF077091F00789ED96E164
:103C30004AE050E00E94614244E050E0A40EB51E0C
:103C40000894E11CF11C82E090E0C80ED91E9FECA4
:103C5000E91693E1F90609F045CFCE0101960E94DD
:103C600080232C960FB6F894DEBF0FBECDBFCF9148
:103C7000DF911F910F91FF90EF90DF90CF90BF9059
:103C8000AF909F908F907F906F9008954F925F922A
:103C90006F927F928F929F92AF92BF92CF92DF925C
:103CA000EF92FF920F931F93CF93DF93ACE56A2EB1
:103CB000A5E07A2ECBEAD3E1F1E08F2E912CE4EF50
:103CC0004E2EE1E05E2EF30180810E94BC3AAA27CD
:103CD00097FDA095BA2FBC01CD0128E833E140E063
:103CE00050E00E9490432FEF33E040E050E00E940C
:103CF000044459016A0108811981C9010E94BB1B52
:103D0000849C7001859CF00C949CF00C11240E0D89
:103D10001F1D000F111F0F50184FF8019183808352
:103D2000C5010E94BB1BBC018CE796E14AE050E054
:103D30000E94614228813981E20EF31EEE0CFF1CC5
:103D400081EF97E0E80EF91EF701808191818837B5
:103D5000910520F42F5F3F4F3983288382E090E064
:103D6000680E791E22960894811C911C93E1CF3A2B
:103D7000D90709F0A8CFDF91CF911F910F91FF9044
:103D8000EF90DF90CF90BF90AF909F908F907F90FB
:103D90006F905F904F90089587E360E00E94D03B62
:103DA00086E360E00E94D03B88E360E00E94D03B65
:103DB0000895CF93DF93EC0189859A85009711F0E0
:103DC0000E94E4018A819B81009711F00E94E40126
:103DD0008E819F81009711F00E94E4018881998172
:103DE000009711F00E94E4018C819D81009711F0F1
:103DF0000E94E401DF91CF910895AF92BF92CF92DC
:103E0000DF92EF92FF920F931F93CF93DF93EC011A
:103E10005B0189859A85892B09F44AC090E009C025
:103E2000E92FF0E0EE0FFF1FEA0DFB1D118210825B
:103E30009F5F8B859817A0F3CC241BC08D2D90E03D
:103E40007C01EE0CFF1CEA0CFB1CF70100811181C8
:103E5000E985FA85E80FF91F80810E94BC3A080FB6
:103E6000191FF70111830083D3948B85D81630F383
:103E7000C3948889C81610F040E017C0DD24F5CF40
:103E8000E42FF0E0EE0FFF1FEA0DFB1D6889862F7F
:103E900090E09595879520813181820F931F70E086
:103EA0000E94BB43718360834F5F8B85481740F34B
:103EB000DF91CF911F910F91FF90EF90DF90CF9006
:103EC000BF90AF900895CF93DF93EC018C858F3F27
:103ED00059F061E00E94D03B8C8561E00E94833CF8
:103EE00088EC90E00E94503ADF91CF910895CF93F3
:103EF000DF93EC018C858F3F59F061E00E94D03B4D
:103F00008C8560E00E94833C88EC90E00E94503AEF
:103F1000DF91CF9108956F927F928F929F92AF928F
:103F2000BF92CF92DF92FF920F931F93CF93DF93B5
:103F3000EC013B0189859A85892B09F473C0FF2424
:103F40001CC00F2D10E0F801EE0FFF1FE60DF71D4E
:103F50008D859E8591838083E985FA85E00FF11F29
:103F6000808161E00E94833CE985FA85E00FF11FC2
:103F7000808161E00E94D03BF3948B85F81608F3B2
:103F80008AE090E00E94503AFF2413C00F2D10E009
:103F9000E985FA85E00FF11F808160E00E94D03B47
:103FA000E985FA85E00FF11F808160E00E94833C83
:103FB000F3948B85F81650F30E94D1395B016C01A4
:103FC00022C00E94D1394B018A189B08FF2418C0D7
:103FD0000F2D10E0E985FA85E00FF11F80810E9426
:103FE000B63C892B61F4F801EE0FFF1FE60DF71DBB
:103FF000808191818816990610F491828082F394D1
:104000008B85F81628F30E94D1396A197B098C092F
:104010009D092D853E8540E050E0621773078407B7
:10402000950778F2DF91CF911F910F91FF90DF906C
:10403000CF90BF90AF909F908F907F906F9008959A
:10404000CF92DF92EF92FF920F931F93DF93CF9364
:10405000CDB7DEB7A0970FB6F894DEBF0FBECDBFC9
:104060008C016B01F42E842F8150823018F4C8012A
:104070000E94631FD8011F968C91882389F4C80180
:10408000B6010E948B1FC8010E94771FB2E0FB1689
:10409000D9F5C801BE016F5F7F4F0E948B1F10C012
:1040A000C801B6010E94FD1EC8010E94771FE2E010
:1040B000FE1651F5C801BE016F5F7F4F0E94FD1EC5
:1040C00040E0BE016F5F7F4F1AC0E42FF0E0EE0FBB
:1040D000FF1F7601EE0EFF1EE60FF71FD8011D969B
:1040E0002D913C911E9780819181281B390BF701FE
:1040F00080819181820F931F918380834F5FD801CC
:104100001B968C91481708F3A0960FB6F894DEBF63
:104110000FBECDBFCF91DF911F910F91FF90EF9018
:10412000DF90CF9008959F92AF92BF92CF92DF928F
:10413000EF92FF920F931F93CF93DF93EC01162F13
:10414000072F942E22E0421711F0442351F48C8162
:104150009D81892B09F4A4C08E819F81892B09F44C
:104160009FC0892D8150823050F488819981892B9C
:1041700009F496C08A819B81892B09F491C0CE01F4
:10418000612F702F492D0E942020812F902F9C019C
:104190005901CC24DD2400E010E07CC081E09816B9
:1041A00069F4EA81FB81E00FF11F20813181E88110
:1041B000F981E00FF11F408151813DC0AC81BD818B
:1041C000992059F4EE81FF81E00FF11F20813181A8
:1041D000A00FB11F4D915C912EC0A00FB11F8D910A
:1041E0009C91E881F981E00FF11F20813181ED85FB
:1041F000FE858217930710F4AF0105C0A9014E0F89
:104200005F1F481B590BEE81FF81E00FF11F60819A
:104210007181EA81FB81E00FF11F80819181ED8541
:10422000FE856817790710F49F0105C09C012E0FC9
:104230003F1F261B370B7901E41AF50A01F1F5013E
:104240006081718180E090E09A0140E050E0621B63
:10425000730B840B950B28EE33E040E050E00E9496
:104260009043970140E050E00E940444C901F3E00C
:10427000293E3F0714F088EE93E097FF02C080E0EC
:1042800090E0F501819391935F010894C11CD11CCA
:104290000E5F1F4F8B8590E0C816D9060CF47ECFB9
:1042A000DF91CF911F910F91FF90EF90DF90CF9012
:1042B000BF90AF909F9008954F925F926F927F92C0
:1042C0008F929F92AF92BF92CF92DF92EF92FF9226
:1042D0000F931F93CF93DF936C013B01822E0E94BB
:1042E0009320F60110869924EE24FF248701AA2446
:1042F000BB2438EE432E33E0532E34C0E92DF0E0DA
:10430000EE0FFF1FE60DF71DC081D181882021F03F
:1043100092012C1B3D0BE901C93CD10524F0F601AB
:1043200080858F5F8087C333D105DCF0BE0188278D
:1043300077FD8095982F292D30E0A901449D9001AB
:10434000459D300D549D300D1124442737FD409577
:10435000542F0E949043E60EF71E081F191FAC0E43
:10436000BD1E9394F6019385991640F280858823AB
:1043700021F5692F70E084EF91E09C01629FC001FC
:10438000639F900D729F900D1124845F9140209146
:10439000CF133091D013281739071CF440E050E0B8
:1043A00018C088EE93E0689FA001699F500D789F28
:1043B000500D1124485E53400CC0950140E050E080
:1043C000C801B7010E94E243A9013093D0132093A2
:1043D000CF13CA01DF91CF911F910F91FF90EF9002
:1043E000DF90CF90BF90AF909F908F907F906F9015
:1043F0005F904F9008958F929F92AF92BF92CF920D
:10440000DF92EF92FF920F931F93DF93CF93CDB77D
:10441000DEB7C054D0400FB6F894DEBF0FBECDBF9C
:104420008C016B017A01DE011196E9E0F6E080E291
:1044300001900D928150E1F7DE019196E9EEF5E0F1
:1044400080E201900D928150E1F7D7018D919C910E
:10445000892B11F5F801838590E0880F991F0E9440
:104460003A01D7018D939C93009709F47CC020E01A
:1044700030E00CC0C901880F991FD701ED91FC9164
:10448000E80FF91F118210822F5F3F4FF8018385DB
:1044900090E02817390774F3D6018D919C91892BF0
:1044A00039F5F801838590E0880F991F0E943A0141
:1044B000D6018D939C93009709F455C020E030E01D
:1044C00011C0C901880F991FD601ED91FC91E80F29
:1044D000F91FD8011D968D919C911E979183808321
:1044E0002F5F3F4FF801838590E0281739074CF381
:1044F00040E050E020E030E05E010894A11CB11CD7
:10450000BE016F5D7F4F28C0F501E20FF31F808071
:104510009180F701A081B181A20FB31F8D919C9171
:1045200011978815990510F48D929C92FB01E20F6A
:10453000F31F80809180F601A081B181A20FB31F8B
:104540008D919C9111978816990610F48D929C92EA
:104550004F5F5F4F2E5F3F4FD8011B968C9190E0CD
:10456000481759078CF2C05CDF4F0FB6F894DEBFD6
:104570000FBECDBFCF91DF911F910F91FF90EF90B4
:10458000DF90CF90BF90AF909F908F9008951F9332
:10459000CF93DF93EC01162F862F8150823040F4A9
:1045A000AE014E5F5F4FCE01BE0121E00E94FB21B4
:1045B000123011F0112349F4AE014A5F5F4FCE0172
:1045C0002496BE0120E00E94FB21DF91CF911F9134
:1045D0000895EF92FF920F931F93CF93DF93EC0117
:1045E0007B01122F198218821B821A821D821C8263
:1045F0001F821E82413118F080E18B8701C04B87FA
:1046000089859A85892B11F090E014C08B8590E004
:104610000E943A019A8789870097B1F710C0E92F65
:10462000F0E0A985BA85AE0FBF1FEE0DFF1D80819A
:104630008C939F5F8B85981790F31C870F87DF9172
:10464000CF911F910F91FF90EF900895EF92FF92FD
:104650000F931F937C01122F202F01E00E94E9226B
:10466000F701108B8FEF93E0968785871F910F914D
:10467000FF90EF9008950F93FC0111821082138236
:1046800012821582148217821682128611860E9467
:1046900026230F910895FC018DE296E0918380839B
:1046A0008FEF9FEF93838283958384830895FC012A
:1046B0008DE296E091838083738362835583448384
:1046C0000895DC01FB012281338112968D919C912A
:1046D00013972817390719F020E030E00FC040E0A9
:1046E0002481358114968D919C911597281739074F
:1046F00009F041E081E04827242F30E0C901089506
:10470000FC018DE296E0918380830895FC018DE2A7
:1047100096E091838083CF010E940B410895EF9230
:10472000FF920F931F937C018B01FC0180810E94FB
:10473000F03AF701178306831F910F91FF90EF90D6
:1047400008950F931F938C01FC01808161E00E940A
:10475000833CF801828161E00E94833CF8018481FE
:1047600061E00E94833C1F910F9108950F931F9366
:104770008C0160E070E00E948F23F801848161E089
:104780000E94833CF801828160E00E94833C1F917B
:104790000F9108950F931F938C0160E070E00E94C9
:1047A0008F23F801828161E00E94833CF8018481BB
:1047B00060E00E94833C1F910F9108950F931F9317
:1047C000FC01862F142F022F608371834283538351
:1047D0002483358361E00E94D03B812F61E00E94F9
:1047E000D03B802F61E00E94D03B1F910F91089534
:1047F000A0912514B0912614ED91FD918081ED9149
:10480000FD919081ED91FD916C9163708E2309F083
:1048100064609F2309F06860E8E1F4E2E60FF11DAF
:10482000659565956D936D917D918D919D9109949F
:1048300023C01AC012C016C010C01EC009C014C0C8
:1048400013C006C019C009C00DC007C00DC014C0F8
:1048500062507040804090400BC06150704080407A
:10486000904006C06E5F01C06F5F7F4F8F4F9F4FBC
:104870009E938E937E936E930895A0912714B0918A
:104880002814ED91FD918081ED91FD919081ED9144
:10489000FD916C9163708E2309F064609F2309F091
:1048A0006860EDE5F4E2E60FF11D659565956D93A1
:1048B0006D917D918D919D91099423C01AC012C074
:1048C00016C010C01EC009C014C013C006C019C055
:1048D00009C00DC007C00DC014C0625070408040B8
:1048E00090400BC0615070408040904006C06E5FA9
:1048F00001C06F5F7F4F8F4F9F4F9E938E937E932C
:104900006E930895A0912914B0912A14ED91FD9110
:104910008081ED91FD919081ED91FD916C9163709D
:104920008E2309F064609F2309F06860E2EAF4E2F4
:10493000E60FF11D659565956D936D917D918D9156
:104940009D91099423C01AC012C016C010C01EC089
:1049500009C014C013C006C019C009C00DC007C0EB
:104960000DC014C062507040804090400BC0615038
:1049700070408040904006C06E5F01C06F5F7F4F07
:104980008F4F9F4F9E938E937E936E930895A09129
:104990002B14B0912C14ED91FD918081ED91FD913E
:1049A0009081ED91FD916C9163708E2309F06460AC
:1049B0009F2309F06860E7EEF4E2E60FF11D6595CC
:1049C00065956D936D917D918D919D91099423C015
:1049D0001AC012C016C010C01EC009C014C013C037
:1049E00006C019C009C00DC007C00DC014C0625078
:1049F0007040804090400BC06150704080409040BB
:104A000006C06E5F01C06F5F7F4F8F4F9F4F9E93B9
:104A10008E937E936E930895A0912D14B0912E14D1
:104A2000ED91FD918081ED91FD919081ED91FD9150
:104A30006C9163708E2309F064609F2309F06860B5
:104A4000ECE2F5E2E60FF11D659565956D936D91CC
:104A50007D918D919D91099423C01AC012C016C0FA
:104A600010C01EC009C014C013C006C019C009C0C0
:104A70000DC007C00DC014C062507040804090400F
:104A80000BC0615070408040904006C06E5F01C016
:104A90006F5F7F4F8F4F9F4F9E938E937E936E934A
:104AA0000895A0912F14B0913014ED91FD91808163
:104AB000ED91FD919081ED91FD916C9163708E234C
:104AC00009F064609F2309F06860E1E7F5E2E60F12
:104AD000F11D659565956D936D917D918D919D917C
:104AE000099423C01AC012C016C010C01EC009C04D
:104AF00014C013C006C019C009C00DC007C00DC046
:104B000014C062507040804090400BC061507040B3
:104B10008040904006C06E5F01C06F5F7F4F8F4F37
:104B20009F4F9E938E937E936E9308958231E1F111
:104B3000833128F4823059F0833039F410C0843145
:104B4000F1F0843120F1853191F080E00895709387
:104B500026146093251480E068EF73E21FC0709301
:104B600028146093271481E06DE374E217C07093FA
:104B70002A146093291482E062E874E20FC07093F3
:104B80002C1460932B1483E067EC74E207C07093DD
:104B90002E1460932D1484E06CE075E241E050E047
:104BA0000E94853781E008957093301460932F142C
:104BB00085E061E575E241E050E00E94853781E0E3
:104BC00008950F931F93CF93DF93EC01162F042FBB
:104BD000862F62E00E94D03B802F62E00E94D03B93
:104BE000212F30E0F901EE5CFE4FE491F0E0EE0F92
:104BF000FF1FE85EFE4F8591949199838883285822
:104C00003E4FF90184918C83202F30E0F901EE5C56
:104C1000FE4FE491F0E0EE0FFF1FE85EFE4F85913E
:104C200094919B838A8328583E4FF90184918D8308
:104C30001F82188619861A8680ED97E00E94503AE6
:104C4000E881F981208140E030E08C8190E02823E8
:104C50003923232B09F041E0EA81FB81208130E0F8
:104C60008D8190E028233923232B09F042604E8365
:104C7000812FBE010E949625182F8B87802FBE01A1
:104C80000E949625180F1B87DF91CF911F910F91DE
:104C9000089585EE93E168E070E044E350E022E39C
:104CA00030E00E94DE238DEE93E169E070E040E3A6
:104CB00050E02EE230E00E94DE2385EF93E162E0D7
:104CC00042E00E94E12581E094E163E043E00E943C
:104CD000E1250895CF92DF92EF92FF920F931F93F9
:104CE00080910C14823008F044C0F894A1E0B4E143
:104CF000ED91FD918081ED91FD919081ED91FD917E
:104D00006C9163708E2309F064609F2309F06860E2
:104D1000E4E9F6E2E60FF11D659565956D936D91F9
:104D20007D918D919D91099423C01AC012C016C027
:104D300010C01EC009C014C013C006C019C009C0ED
:104D40000DC007C00DC014C062507040804090403C
:104D50000BC0615070408040904006C06E5F01C043
:104D60006F5F7F4F8F4F9F4F9E938E937E936E9377
:104D700001C0F894209108143091091440910A144C
:104D800050910B14789480910014823008F044C044
:104D9000F894A5EFB3E1ED91FD918081ED91FD9146
:104DA0009081ED91FD916C9163708E2309F06460A8
:104DB0009F2309F06860E7EEF6E2E60FF11D6595C6
:104DC00065956D936D917D918D919D91099423C011
:104DD0001AC012C016C010C01EC009C014C013C033
:104DE00006C019C009C00DC007C00DC014C0625074
:104DF0007040804090400BC06150704080409040B7
:104E000006C06E5F01C06F5F7F4F8F4F9F4F9E93B5
:104E10008E937E936E9301C0F89478948091FC13E6
:104E20009091FD13B901681B790B70932414609362
:104E30002314882777FD8095982F0E946E36209145
:104E4000A4053091A5054091A6055091A7050E94A3
:104E500022377B018C016091980570919905882714
:104E600077FD8095982F0E946E36A80197010E94C9
:104E70006A350E943B366B017093201460931F14B7
:104E800060919E0570919F05882777FD8095982FEA
:104E90000E946E36A80197010E946B350E943B3636
:104EA000AB01709322146093211480919A05909124
:104EB0009B05C816D90624F49093201480931F14E0
:104EC00020919C0530919D0580911F149091201494
:104ED0002817390724F43093201420931F1480914D
:104EE000A0059091A1054817590724F49093221426
:104EF000809321142091A2053091A3058091211463
:104F0000909122142817390724F430932214209307
:104F1000211460911F14709120148DEE93E10E9472
:104F20008F23609121147091221485EE93E10E94E9
:104F30008F231F910F91FF90EF90DF90CF900895F6
:104F4000CF92DF92EF92FF920F931F93CF93DF9355
:104F50008C01F894109208141092091410920A14FB
:104F600010920B147894F8941092FC131092FD1385
:104F70001092FE131092FF1378948DEE93E10E942D
:104F8000B62385EE93E10E94B6238DEE93E166E4AD
:104F900070E00E948F2385EE93E160E570E00E944F
:104FA0008F23C1E0D4E16801EE24D7FCE094FE2C0D
:104FB00006C061E070E080E090E00E94F7398091E7
:104FC0000C14823008F043C0F894DE01ED91FD919D
:104FD0008081ED91FD919081ED91FD916C916370D7
:104FE0008E2309F064609F2309F06860E2E0F8E234
:104FF000E60FF11D659565956D936D917D918D9190
:105000009D91099423C01AC012C016C010C01EC0C2
:1050100009C014C013C006C019C009C00DC007C024
:105020000DC014C062507040804090400BC0615071
:1050300070408040904006C06E5F01C06F5F7F4F40
:105040008F4F9F4F9E938E937E936E9301C0F894E3
:1050500078948091081490910914A0910A14B09149
:105060000B148C159D05AE05BF050CF4A2CF8DEE7B
:1050700093E10E94A12385EE93E10E94A123DF9199
:10508000CF911F910F91FF90EF90DF90CF900895F7
:105090008DEE93E10E94A12385EE93E10E94A1236E
:1050A0000895CF92DF92EF92FF920F931F93CF93C9
:1050B000DF938C01F8941092081410920914109246
:1050C0000A1410920B147894F8941092FC13109216
:1050D000FD131092FE131092FF1378948DEE93E15E
:1050E0000E94B62385EE93E10E94B623C1E0D4E18D
:1050F0006801EE24D7FCE094FE2C02C00E946A26D0
:1051000080910C14823008F043C0F894DE01ED91D8
:10511000FD918081ED91FD919081ED91FD916C91DA
:1051200063708E2309F064609F2309F06860E3EAEE
:10513000F8E2E60FF11D659565956D936D917D9192
:105140008D919D91099423C01AC012C016C010C041
:105150001EC009C014C013C006C019C009C00DC0CC
:1051600007C00DC014C062507040804090400BC01A
:10517000615070408040904006C06E5F01C06F5F1C
:105180007F4F8F4F9F4F9E938E937E936E9301C060
:10519000F89478948091081490910914A0910A14BD
:1051A000B0910B148C159D05AE05BF050CF4A6CF70
:1051B0000E944828DF91CF911F910F91FF90EF90AF
:1051C000DF90CF9008950F931F93CF93DF931092AA
:1051D000D4131092D31385EE93E10E94A12305EF1F
:1051E00013E1C091D313D091D41362E370E080E057
:1051F00090E00E94F73980910014823008F043C09B
:10520000F894D801ED91FD918081ED91FD9190810F
:10521000ED91FD916C9163708E2309F064609F2382
:1052200009F06860EEE1F9E2E60FF11D659565951C
:105230006D936D917D918D919D91099423C01AC0BC
:1052400012C016C010C01EC009C014C013C006C0D2
:1052500019C009C00DC007C00DC014C06250704015
:10526000804090400BC0615070408040904006C02C
:105270006E5F01C06F5F7F4F8F4F9F4F9E938E93E6
:105280007E936E9301C0F89478948091FC13909172
:10529000FD139093D4138093D3138C179D0709F0BB
:1052A000A0CFDF91CF911F910F9108950F931F937E
:1052B000CF93DF931092D2131092D1138DEE93E11E
:1052C0000E94A12301E014E1C091D113D091D21327
:1052D00062E370E080E090E00E94F73980910C1466
:1052E000823008F043C0F894D801ED91FD9180819F
:1052F000ED91FD919081ED91FD916C9163708E2304
:1053000009F064609F2309F06860E1E9F9E2E60FC3
:10531000F11D659565956D936D917D918D919D9133
:10532000099423C01AC012C016C010C01EC009C004
:1053300014C013C006C019C009C00DC007C00DC0FD
:1053400014C062507040804090400BC0615070406B
:105350008040904006C06E5F01C06F5F7F4F8F4FEF
:105360009F4F9E938E937E936E9301C0F894789492
:1053700080910814909109149093D2138093D113C3
:105380008C179D0709F0A0CFDF91CF911F910F914E
:105390000895F894109208141092091410920A14A7
:1053A00010920B147894F8941092FC131092FD1341
:1053B0001092FE131092FF1378948DEE93E10E94E9
:1053C000A12385EE93E10E94A1230E9456290E9409
:1053D000E32808958F929F92AF92BF92CF92DF926F
:1053E000EF92FF920F931F9380911D1490911E14C2
:1053F00090931C1480931B1482E394E165ED73E198
:1054000041E021E00E945C218C5A9D4064E670E0FE
:105410000E94CF437B0170931E1460931D14B7014B
:10542000882777FD8095982F0E946E3620918405FD
:105430003091850540918605509187050E9422375D
:105440005B016C0180911B1490911C14E81AF90AFD
:105450000027F7FC0095102FC801B7010E946E3697
:10546000209188053091890540918A0550918B05DE
:105470000E9422377B018C0160918C0570918D0513
:10548000882777FD8095982F0E946E36A60195019A
:105490000E946B35A80197010E946B350E943B3634
:1054A0004B017093181460931714609192057091DA
:1054B0009305882777FD8095982F0E946E36A60168
:1054C00095010E946A35A80197010E946A350E94E1
:1054D0003B36AB0170931A146093191480918E05BA
:1054E00090918F058816990624F490931814809350
:1054F0001714209190053091910580911714909187
:1055000018142817390724F430931814209317140B
:1055100080919405909195054817590724F490932C
:105520001A14809319142091960530919705809153
:10553000191490911A142817390724F430931A1467
:105540002093191460911714709118148DEE93E143
:105550000E948F236091191470911A1485EE93E1C3
:105560000E948F231F910F91FF90EF90DF90CF90BB
:10557000BF90AF909F908F900895CF92DF92EF925F
:10558000FF920F931F93CF93DF938C01F89478943D
:10559000F8941092FC131092FD131092FE131092C7
:1055A000FF137894F8941092081410920914109232
:1055B0000A1410920B1478948DEE93E10E94CA2382
:1055C00085EE93E10E94CA23C1E0D4E16801EE2494
:1055D000D7FCE094FE2C02C00E94EA2980910C14B2
:1055E000823008F043C0F894DE01ED91FD91808196
:1055F000ED91FD919081ED91FD916C9163708E2301
:1056000009F064609F2309F06860E1E1FBE2E60FC6
:10561000F11D659565956D936D917D918D919D9130
:10562000099423C01AC012C016C010C01EC009C001
:1056300014C013C006C019C009C00DC007C00DC0FA
:1056400014C062507040804090400BC06150704068
:105650008040904006C06E5F01C06F5F7F4F8F4FEC
:105660009F4F9E938E937E936E9301C0F89478948F
:105670008091081490910914A0910A14B0910B1410
:105680008C159D05AE05BF050CF4A6CF8DEE93E1FC
:105690000E94A12385EE93E10E94A123DF91CF9187
:1056A0001F910F91FF90EF90DF90CF90089582E3CC
:1056B00094E165ED73E141E021E00E945C218C5AA8
:1056C0009D4090930E1480930D1497FF33C08DEE80
:1056D00093E10E94B6238DEE93E16CE370E00E94AB
:1056E0008F2385EE93E10E94CA2385EE93E16CE35C
:1056F00070E00E948F230EC082E394E165ED73E1B8
:1057000041E021E00E945C218C5A9D4090930E1450
:1057100080930D1480910D1490910E1488519C4F1C
:105720005CF38DEE93E10E94A12385EE93E10E944C
:10573000A1230895892B91F18DEE93E10E94CA2354
:105740008DEE93E160E570E00E948F2385EE93E19A
:105750000E94B62385EE93E160E570E00E948F23FE
:105760000EC082E394E165ED73E141E021E00E9427
:105770005C218C5A9D4090930E1480930D1480915F
:105780000D1490910E14895E93405CF78DEE93E1B9
:105790000E94A12385EE93E10E94A1230895FF9228
:1057A0000F931F93CF93DF930E94C92985EE93E156
:1057B0000E94B62385EE93E160E570E00E948F239E
:1057C0008DEE93E10E94CA238DEE93E160E570E0D7
:1057D0000E948F23F89410920814109209141092CA
:1057E0000A1410920B147894F8941092FC131092EF
:1057F000FD131092FE131092FF137894109215145B
:105800001092161405EF13E1C1E0D4E122E0F22E6C
:10581000E7C080911614882319F481E08093151451
:1058200090911514913031F480913A14882311F03D
:105830009093161482E394E165ED73E141E021E079
:105840000E945C2180913A14882331F480911614CF
:10585000813011F4F092151490911514923031F4B6
:1058600080913A14882311F09093161480910014BB
:10587000823008F043C0F894D801ED91FD91808109
:10588000ED91FD919081ED91FD916C9163708E236E
:1058900009F064609F2309F06860E9E5FCE2E60F27
:1058A000F11D659565956D936D917D918D919D919E
:1058B000099423C01AC012C016C010C01EC009C06F
:1058C00014C013C006C019C009C00DC007C00DC068
:1058D00014C062507040804090400BC061507040D6
:1058E0008040904006C06E5F01C06F5F7F4F8F4F5A
:1058F0009F4F9E938E937E936E9301C0F8947894FD
:105900008091FC139091FD13A091FE13B091FF13B1
:10591000895B9B40A040B04024F085EE93E10E945B
:10592000A12380910C14823008F043C0F894DE016A
:10593000ED91FD918081ED91FD919081ED91FD9131
:105940006C9163708E2309F064609F2309F0686096
:10595000E4EBFCE2E60FF11D659565956D936D91A5
:105960007D918D919D91099423C01AC012C016C0DB
:1059700010C01EC009C014C013C006C019C009C0A1
:105980000DC007C00DC014C06250704080409040F0
:105990000BC0615070408040904006C06E5F01C0F7
:1059A0006F5F7F4F8F4F9F4F9E938E937E936E932B
:1059B00001C0F89478948091081490910914A091F2
:1059C0000A14B0910B14895B9B40A040B04024F0B6
:1059D0008DEE93E10E94A12384E690E00E94503A6C
:1059E00080910014823008F043C0F894D801ED9102
:1059F000FD918081ED91FD919081ED91FD916C91F2
:105A000063708E2309F064609F2309F06860E3E10E
:105A1000FDE2E60FF11D659565956D936D917D91A4
:105A20008D919D91099423C01AC012C016C010C058
:105A30001EC009C014C013C006C019C009C00DC0E3
:105A400007C00DC014C062507040804090400BC031
:105A5000615070408040904006C06E5F01C06F5F33
:105A60007F4F8F4F9F4F9E938E937E936E9301C077
:105A7000F89478948091FC139091FD13A091FE13FB
:105A8000B091FF13885B9B40A040B0400CF458C01D
:105A900080910C14823008F043C0F894DE01ED913F
:105AA000FD918081ED91FD919081ED91FD916C9141
:105AB00063708E2309F064609F2309F06860EBE651
:105AC000FDE2E60FF11D659565956D936D917D91F4
:105AD0008D919D91099423C01AC012C016C010C0A8
